:060000000A128A11E42F30
:100412000134013401340A128A1128220A128A1183
:1004220083160313111408000A128A1128220A12D1
:100432008A1183160313111508000A128A11282241
:100442000A128A117008831203139300080083169C
:10045200031311081F39031D2F2A302A282A1419C1
:10046200332A342A282A0800F200F101721C3A2A9F
:100472003B2A3D2A7008F1070310F00D0310F20C1D
:100482007208031D452A462A372A71080800F1001E
:100492001630710203184E2A4F2A5C2A0930700264
:1004A200031C542A552A562A5C2A71088312031304
:1004B200C2007008C1000800F3000830F400F50122
:1004C2007308F10007300310F10CFF3E031D642A8C
:1004D2007508F20072077104F5000310F30D70083D
:1004E2007502031C752A762A782A7008F5020130F3
:1004F200F402031D7D2A7E2A612A75080800F40190
:10050200F501701C852A862A8C2A7208F4070318C2
:10051200F50A7308F50701300310F20DF30DFF3EE3
:10052200031D8D2A01300310F10CF00CFF3E031D58
:10053200942A70087104031D9F2AA02A822A750832
:10054200F1007408F0000800BE2A3608A000350841
:10055200FF00340884000A128A1500200A128A1148
:100562000A128A11F3250A128A1101308312031327
:10057200B4070318B50A0030B50783120313350810
:10058200FF00340884000A128A1500200A128A1118
:10059200003A031DCD2ACE2AA62A0800F4000A1228
:1005A2008A110C220A128A11831203133F08F200E5
:1005B200F3017208F0007308F1000A128A111E2278
:1005C2000A128A110030F000F1000A128A111E226A
:1005D2000A128A117408F200F3017208F00073081B
:1005E200F1000A128A111E220A128A110A128A11B3
:1005F20015220A128A1108000030FC000030FB00AC
:100602000030FA000030F900701C082B092B202B57
:100612007408F907750803110318013E0319122B18
:10062200FA07760803110318013E0319192BFB0779
:10063200770803110318013E0319202BFC07013030
:10064200F8000310F40DF50DF60DF70DF80B222B43
:1006520001300310F30CF20CF10CF00CFF3E031D01
:100662002A2B7308720471047004031D392B3A2B70
:10067200052B7C08F3007B08F2007A08F100790868
:10068200F00008008316031387150716283083121B
:1006920003139400831603139101831203132D088D
:1006A200B1002E08B2002F08B3003008B4000230A7
:1006B2000310B10DB20DB30DB40DFF3E031D592B46
:1006C2003408F3003308F2003208F1003108F00078
:1006D2000030F7000030F6000030F5006430F4001E
:1006E2000A128A11FD220A128A1173088312031355
:1006F200A3007208A2007108A1007008A0000030D7
:10070200A7007A30A6001230A5000030A4000A1219
:100712008A1158240A128A11831203132008FF3EF9
:100722008316031393009401080021300A128A11E0
:10073200CF220A128A1100300A128A11CF220A121B
:100742008A117F300A128A11CF220A128A112230AC
:100752000A128A11CF220A128A1100300A128A1151
:10076200CF220A128A1107300A128A11CF220A12E4
:100772008A110A128A110C220A128A118312031395
:100782003F08F500F6017508F0007608F1000A123C
:100792008A111E220A128A114030F0000030F10044
:1007A2000A128A111E220A128A11F701F801003078
:1007B200F000F1000A128A111E220A128A11013077
:1007C200F7070318F80A0030F807043078020030FF
:1007D20003197702031CEE2BEF2BD82B0A128A1176
:1007E20015220A128A110800FB01F71FF92BFA2BB6
:1007F200012CF609F709F60A0319F70A0130FB0082
:10080200F91F042C052C0C2CF809F909F80A031914
:10081200F90A0130FB06FC01FD0176087704031991
:10082200132C142C492C0130FA00202C0130031017
:10083200F60DF70DFF3E031D182C0130FA07F71FC6
:10084200232C242C172C01300310FC0DFD0DFF3E30
:10085200031D252C77087902031D312C76087802B6
:10086200031C342C352C3C2C7608F8027708031C28
:10087200F903F9027C1401300310F70CF60CFF3E69
:10088200031D3D2C0130FA02031D482C492C242C57
:100892007B0803194D2C4E2C532CFC09FD09FC0A34
:1008A2000319FD0A7D08F7007C08F60008000030F5
:1008B20083120313AB000030AA000030A9000030FD
:1008C200A80023082204210420040319692C6A2C9D
:1008D200B52C0130AC00782C0130FD000310A00DC6
:1008E200A10DA20DA30DFD0B6F2C0130AC07A31FB0
:1008F2007B2C7C2C6D2C0130FD000310A80DA90D62
:10090200AA0DAB0DFD0B7E2C23082702031D932C91
:1009120022082602031D932C21082502031D932C75
:1009220020082402031C962C972CA62C2008A40233
:100932002108031C210FA5022208031C220FA60274
:100942002308031C230FA702281401300310A30C51
:10095200A20CA10CA00CFF3E031DA72C0130AC027F
:10096200031DB42CB52C7C2C2B08A3002A08A20052
:100972002908A1002808A000080083160313880193
:100982000B3083120313B9002630B8005D30B70074
:10099200B70BC92CB80BC92CB90BC92C0030831268
:1009A2000313B0000030AF000730AE00D030AD000E
:1009B2000A128A1143230A128A117830F500023092
:1009C2000A128A112B250A128A110A128A119623F7
:1009D2000A128A11FF30831203138806F001F00A0B
:1009E20001300A128A1148220A128A11ED3083124A
:1009F2000313B4008930B500B601B60A0A128A118F
:100A0200A5220A128A110230F00001300A128A115C
:100A120048220A128A11003083120313B4008A306A
:100A2200B500B601B60A0A128A11A5220A128A1163
:100A3200483083120313B9000630B8009F30B70064
:100A4200B70B212DB80B212DB90B212DE62C0A1243
:100A52008A110028F600760883120313BE00750877
:100A6200BF00AE300A128A11CF220A128A11D53083
:100A72000A128A11CF220A128A1180300A128A11AE
:100A8200CF220A128A11A8300A128A11CF220A1220
:100A92008A113F300A128A11CF220A128A11D330E8
:100AA2000A128A11CF220A128A1100300A128A11FE
:100AB200CF220A128A1140300A128A11CF220A1258
:100AC2008A118D300A128A11CF220A128A117603F4
:100AD200031D6C2D6D2D742D10300A128A11CF2238
:100AE2000A128A117A2D14300A128A11CF220A129E
:100AF2008A1120300A128A11CF220A128A1100307A
:100B02000A128A11CF220A128A11A1300A128A11FC
:100B1200CF220A128A11C8300A128A11CF220A126F
:100B22008A11DA300A128A11CF220A128A1112307D
:100B32000A128A11CF220A128A1181300A128A11EC
:100B4200CF220A128A117603031DA82DA92DB02DDA
:100B52009F300A128A11CF220A128A11B62DCF3083
:100B62000A128A11CF220A128A11D9300A128A1164
:100B7200CF220A128A117603031DC02DC12DC82D62
:100B820022300A128A11CF220A128A11CE2DF13096
:100B92000A128A11CF220A128A11DB300A128A1132
:100BA200CF220A128A1140300A128A11CF220A1267
:100BB2008A11A4300A128A11CF220A128A11A6308F
:100BC2000A128A11CF220A128A112E300A128A11AF
:100BD200CF220A128A11AF300A128A11CF220A12C8
:100BE2008A11080083120313B20020300A128A11FC
:100BF200CF220A128A1101300A128A11CF220A1256
:100C02008A112030831203133202031C092E0A2E8A
:100C1200102E7F303202031C0F2E102E122E3F3068
:100C2200B20020080319162E172E1D2E05302002A1
:100C3200031C1C2E1D2E1F2E0130A000AA01362ED1
:100C4200831203132008F00042080A128A115D225F
:100C52000A128A11013A03192F2E302E482E013022
:100C620083120313C2070130AA072008FF3EA10026
:100C7200FF3003180030A2002208803A803C031D96
:100C8200442E21082A02031C472E482E212E1630FC
:100C9200831203134202031C4F2E502E592E013091
:100CA200C20040080319562E572E592E2008C1079C
:100CB20021300A128A11CF220A128A110630F0005C
:100CC200831203134208FF3E0A128A1135220A12C6
:100CD2008A110A128A11CF220A128A110530F000F3
:100CE2008312031320080A128A1135220A128A116A
:100CF20083120313A1000630F00042080A128A117F
:100D020035220A128A11831203132107F93E0A12AD
:100D12008A11CF220A128A1122300A128A11CF2294
:100D22000A128A11831203134108FF3E0A128A1122
:100D3200CF220A128A118312031341082007FE3EB2
:100D42000A128A11CF220A128A110A128A110C225D
:100D52000A128A11831203133F08A100A20121087B
:100D6200F0002208F1000A128A111E220A128A11C8
:100D72004030F0000030F1000A128A111E220A12DD
:100D82008A1183120313B1010030A8000030A700BA
:100D92000030A6000030A500533032020318D22ED4
:100DA200D32EF42E0530F0003208E03E0A128A11EA
:100DB20035220A128A1183120313AE003108123E41
:100DC200A10088300318013EA2002E0821078400EA
:100DD20022080318220AFF000A128A1500200A12AA
:100DE2008A11AD00142F0530F0003208AD3E0A1210
:100DF2008A1135220A128A1183120313AE003108B6
:100E0200113EA10089300318013EA2002E082107DD
:100E1200840022080318220AFF000A128A15002001
:100E22000A128A11AD002003031D182F192F262F35
:100E32002D08A100A2012108F0002208F1000A12E7
:100E42008A111E220A128A11B52FB3010130A100A4
:100E5200330A2D2F0310A10DFF3E031D2B2F210856
:100E62002D050319352F362F872FB001812F20082A
:100E7200F00033080A128A1135220A128A118312EB
:100E820003133007AB000730AB050830F600003023
:100E9200F7003308A100A2012108F0002208F100A6
:100EA2002008A300A4012308F2002408F3000A1278
:100EB2008A1180220A128A118312031330087007E2
:100EC200F8000030031801307107F9000A128A1184
:100ED200F5230A128A11760883120313A90029083E
:100EE200253E84000130A1002B0A792F0310A10DA9
:100EF200FF3E031D772F2108831380040130B007C2
:100F020020083002031C862F872F382F0130B307A9
:100F120008303302031C8E2F8F2F272FAC01AF2FE7
:100F2200AF01A72F2F08253E840083130008A100DC
:100F3200A2012108F0002208F1000A128A111E22E1
:100F42000A128A11013083120313AF0720082F02FD
:100F5200031CAC2FAD2F932F0130AC0720082C02BD
:100F6200031CB42FB52F912F013083120313B10745
:100F720005303102031CBE2FBF2FC52E0A128A1163
:100F820015220A128A11831203132008C20716308F
:100F92004202031CCD2FCE2FD72F0130C2004008B2
:100FA2000319D42FD52FD72F2008C10720300A12BA
:100FB2008A11CF220A128A1100300A128A11CF2214
:100FC2000A128A1108000A128A1109220A128A11C7
:100FD200C0000A128A110A220A128A11C1000A12D8
:100FE2008A110B220A128A11C200BA01BB01BC018A
:100FF200BD01BE01BF0183010A128A11BE2CFF1B73
:101002000A2883137F1883170008840A0319FF0A2A
:1010120008007F087F398A000408840A0319FF0A3E
:1010220082000034003400340034003400340034D0
:101032005F340034003400340734003407340034A1
:1010420014347F3414347F34143424342A347F34F7
:101052002A34123423341334083464346234363478
:1010620049345634203450340034083407340334BD
:10107200003400341C34223441340034003441340E
:1010820022341C3400342A341C347F341C342A3475
:10109200083408343E340834083400348034703460
:1010A2003034003408340834083408340834003446
:1010B2000034603460340034203410340834043492
:1010C20002343E345134493445343E3400344234DF
:1010D2007F3440340034723449344934493446341C
:1010E2002134413449344D343334183414341234F5
:1010F2007F341034273445344534453439343C3454
:101102004A344934493431344134213411340934B4
:101112000734363449344934493436344634493450
:10112200493429341E340034003414340034003479
:10113200003440343434003400340034083414347D
:101142002234413414341434143414341434003436
:101152004134223414340834023401345934093409
:1011620006343E3441345D3459344E347C341234C6
:10117200113412347C347F3449344934493436349E
:101182003E3441344134413422347F344134413499
:1011920041343E347F3449344934493441347F3414
:1011A20009340934093401343E3441344134513470
:1011B20073347F340834083408347F3400344134C3
:1011C2007F34413400342034403441343F340134DC
:1011D2007F3408341434223441347F344034403470
:1011E200403440347F3402341C3402347F347F3440
:1011F2000434083410347F343E34413441344134B1
:101202003E347F3409340934093406343E344134DF
:10121200513421345E347F3409341934293446344C
:1012220026344934493449343234033401347F3466
:10123200013403343F344034403440343F341F34AB
:101242002034403420341F343F3440343834403466
:101252003F346334143408341434633403340434B0
:101262007834043403346134593449344D344334CA
:1012720000347F344134413441340234043408347C
:101282001034203400344134413441347F34043446
:1012920002340134023404344034403440344034A3
:1012A20040340034033407340834003420345434D6
:1012B2005434783440347F34283444344434383419
:1012C2003834443444344434283438344434443490
:1012D20028347F3438345434543454341834003479
:1012E20008347E34093402341834A434A4349C34CF
:1012F20078347F3408340434043478340034443489
:101302007D34403400342034403440343D340034A1
:101312007F341034283444340034003441347F3470
:10132200403400347C3404347834043478347C34EB
:10133200083404340434783438344434443444347F
:101342003834FC3418342434243418341834243413
:1013520024341834FC347C3408340434043408341F
:1013620048345434543454342434043404343F342C
:10137200443424343C344034403420347C341C34EF
:101382002034403420341C343C3440343034403433
:101392003C34443428341034283444344C349034AB
:1013A200903490347C344434643454344C34443473
:1013B2000034083436344134003400340034773495
:1013C20000340034003441343634083400340234FA
:1013D20001340234043402344534643475346334E1
:1013E2006134743469346F346E3461346C34203453
:1013F2004C346134703474346F347034003450348B
:1014020072346134743469346B342034503475343A
:061412006A34613400346D
:02400E00393F38
:00000001FF
